:060000000A128A11F42827
:1001E80083010A128A11F828831686018601FF30D6
:1001F8008312031386000B30F2002630F1006630BC
:10020800F000F00B0529F10B0529F20B05290C2943
:100218008312031386010B30F2002630F10066309A
:10022800F000F00B1529F10B1529F20B15291C29E3
:1002380080308312031386000B30F2002630F10061
:100248006630F000F00B2629F10B2629F20B26293F
:100258002D2940308312031386000B30F20026301C
:10026800F1006630F000F00B3729F10B3729F20B5B
:1002780037293E2920308312031386000B30F20001
:100288002630F1006630F000F00B4829F10B4829C0
:10029800F20B48294F2910308312031386000B30C4
:1002A800F2002630F1006630F000F00B5929F10B0E
:1002B8005929F20B59296029083083120313860043
:1002C8000B30F2002630F1006630F000F00B6A299E
:1002D800F10B6A29F20B6A2971290430831203137E
:1002E80086000B30F2002630F1006630F000F00B8B
:1002F8007B29F10B7B29F20B7B298229023083129F
:10030800031386000B30F2002630F1006630F0004F
:10031800F00B8C29F10B8C29F20B8C2993290130D5
:100328008312031386000B30F2002630F10066308A
:10033800F000F00B9D29F10B9D29F20B9D29A429B2
:1003480002308312031386000B30F2002630F100CE
:100358006630F000F00BAE29F10BAE29F20BAE2996
:10036800B52904308312031386000B30F2002630BF
:10037800F1006630F000F00BBF29F10BBF29F20B3A
:10038800BF29C62908308312031386000B30F200F8
:100398002630F1006630F000F00BD029F10BD0299F
:1003A800F20BD029D72910308312031386000B30A3
:1003B800F2002630F1006630F000F00BE129F10B75
:1003C800E129F20BE129E829203083120313860082
:1003D8000B30F2002630F1006630F000F00BF22905
:1003E800F10BF229F20BF229F92940308312031399
:1003F80086000B30F2002630F1006630F000F00B7A
:10040800032AF10B032AF20B032A0A2A80308312EB
:10041800031386000B30F2002630F1006630F0003E
:10042800F00B142AF10B142AF20B142A1B2A83123C
:10043800031386010B30F2002630F1006630F0001D
:10044800F00B242AF10B242AF20B242A2B2AFF3042
:100458008312031386000B30F2002630F100663059
:10046800F000F00B352AF10B352AF20B352A3C2A1D
:1004780080308312031386000B30F2002630F1001F
:100488006630F000F00B462AF10B462AF20B462A9A
:100498004D2AC0308312031386000B30F200263039
:1004A800F1006630F000F00B572AF10B572AF20BD7
:1004B800572A5E2AE0308312031386000B30F200BD
:1004C8002630F1006630F000F00B682AF10B682A3C
:1004D800F20B682A6F2AF0308312031386000B3060
:1004E800F2002630F1006630F000F00B792AF10BAB
:1004F800792AF20B792A802AF030831203138600B6
:100508000B30F2002630F1006630F000F00B8A2A3A
:10051800F10B8A2AF20B8A2A912AFC3083120313E0
:1005280086000B30F2002630F1006630F000F00B48
:100538009B2AF10B9B2AF20B9B2AA22AFE308312DC
:10054800031386000B30F2002630F1006630F0000D
:10055800F00BAC2AF10BAC2AF20BAC2AB32AFF3011
:100568008312031386000B30F2002630F100663048
:10057800F000F00BBD2AF10BBD2AF20BBD2AC42AEC
:1005880080308312031386000B30F2002630F1000E
:100598006630F000F00BCE2AF10BCE2AF20BCE2AF1
:1005A800D52AC0308312031386000B30F2002630A0
:1005B800F1006630F000F00BDF2AF10BDF2AF20BB6
:1005C800DF2AE62AE0308312031386000B30F2009C
:1005D8002630F1006630F000F00BF02AF10BF02A1B
:1005E800F20BF02AF72AF0308312031386000B303F
:1005F800F2002630F1006630F000F00B012BF10B11
:10060800012BF20B012B082BF03083120313860009
:100618000B30F2002630F1006630F000F00B122BA0
:10062800F10B122BF20B122B192BFC308312031334
:1006380086000B30F2002630F1006630F000F00B37
:10064800232BF10B232BF20B232B2A2BFE308312A7
:10065800031386000B30F2002630F1006630F000FC
:10066800F00B342BF10B342BF20B342B3B2BFF30DC
:100678008312031386000B30F2002630F100663037
:10068800F000F00B452BF10B452BF20B452B4C2BB7
:100698007F308312031386000B30F2002630F100FE
:1006A8006630F000F00B562BF10B562BF20B562B45
:1006B8005D2B3F308312031386000B30F200263087
:1006C800F1006630F000F00B672BF10B672BF20B93
:1006D800672B6E2B1F308312031386000B30F2003A
:1006E8002630F1006630F000F00B782BF10B782BF8
:1006F800F20B782B7F2B0F308312031386000B30FD
:10070800F2002630F1006630F000F00B892BF10B77
:10071800892BF20B892B902B073083120313860049
:100728000B30F2002630F1006630F000F00B9A2B07
:10073800F10B9A2BF20B9A2BA12B03308312031384
:1007480086000B30F2002630F1006630F000F00B26
:10075800AB2BF10BAB2BF20BAB2BB22B0130831273
:10076800031386000B30F2002630F1006630F000EB
:10077800F00BBC2BF10BBC2BF20BBC2BC32B831245
:10078800031386010B30F2002630F1006630F000CA
:10079800F00BCC2BF10BCC2BF20BCC2BD32B8130C9
:1007A8008312031386000B30F2002630F100663006
:1007B800F000F00BDD2BF10BDD2BF20BDD2BE42B26
:1007C800C3308312031386000B30F2002630F10089
:1007D8006630F000F00BEE2BF10BEE2BF20BEE2B4C
:1007E800F52BE7308312031386000B30F200263016
:1007F800F1006630F000F00BFF2BF10BFF2BF20B32
:10080800FF2B062CFF308312031386000B30F200F7
:100818002630F1006630F000F00B102CF10B102C94
:10082800F20B102C172CE7308312031386000B30C1
:10083800F2002630F1006630F000F00B212CF10BAD
:10084800212CF20B212C282CC33083120313860091
:100858000B30F2002630F1006630F000F00B322C3D
:10086800F10B322CF20B322C392C8130831203130A
:1008780086000B30F2002630F1006630F000F00BF5
:10088800432CF10B432CF20B432C4A2C83120313F9
:1008980086010B30F2002630F1006630F000F00BD4
:1008A800532CF10B532CF20B532C5A2C81308312FE
:1008B800031386000B30F2002630F1006630F0009A
:1008C800F00B642CF10B642CF20B642C6B2CC330F2
:1008D8008312031386000B30F2002630F1006630D5
:1008E800F000F00B752CF10B752CF20B752C7C2C91
:1008F800E7308312031386000B30F2002630F10034
:100908006630F000F00B862CF10B862CF20B862C4F
:100918008D2CFF308312031386000B30F200263033
:10092800F1006630F000F00B972CF10B972CF20BCE
:10093800972C9E2C7E308312031386000B30F20016
:100948002630F1006630F000F00BA82CF10BA82C33
:10095800F20BA82CAF2C3C308312031386000B300B
:10096800F2002630F1006630F000F00BB92CF10BE4
:10097800B92CF20BB92CC02C183083120313860043
:100988000B30F2002630F1006630F000F00BCA2C74
:10099800F10BCA2CF20BCA2CD12C8312031386013B
:1009A8000B30F2002630F1006630F000F00BDA2C44
:1009B800F10BDA2CF20BDA2CE12C1830831203132A
:1009C80086000B30F2002630F1006630F000F00BA4
:1009D800EB2CF10BEB2CF20BEB2CF22C3C308312B2
:1009E800031386000B30F2002630F1006630F00069
:1009F800F00BFC2CF10BFC2CF20BFC2C032D7E30A5
:100A08008312031386000B30F2002630F1006630A3
:100A1800F000F00B0D2DF10B0D2DF20B0D2D142DFB
:100A2800FF308312031386000B30F2002630F100EA
:100A38006630F000F00B1E2DF10B1E2DF20B1E2D53
:100A4800252DE7308312031386000B30F200263081
:100A5800F1006630F000F00B2F2DF10B2F2DF20B6B
:100A68002F2D362DC3308312031386000B30F2006E
:100A78002630F1006630F000F00B402DF10B402DD0
:100A8800F20B402D472D81308312031386000B3063
:100A9800F2002630F1006630F000F00B512DF10B1A
:100AA800512DF20B512D582D8312031386010B3053
:100AB800F2002630F1006630F000F00B612DF10BEA
:100AC800612DF20B612D682D1830831203138600F7
:100AD8000B30F2002630F1006630F000F00B722D7A
:100AE800F10B722DF20B722D792D3C30831203130A
:100AF80086000B30F2002630F1006630F000F00B73
:100B0800832DF10B832DF20B832D8A2D7E308312DA
:100B1800031386000B30F2002630F1006630F00037
:100B2800F00B942DF10B942DF20B942D9B2DFF308F
:100B38008312031386000B30F2002630F100663072
:100B4800F000F00BA52DF10BA52DF20BA52DAC2D6A
:100B5800E7308312031386000B30F2002630F100D1
:100B68006630F000F00BB62DF10BB62DF20BB62D5A
:100B7800BD2DC3308312031386000B30F2002630DC
:100B8800F1006630F000F00BC72DF10BC72DF20B0A
:100B9800C72DCE2D81308312031386000B30F2004F
:100BA8002630F1006630F000F00BD82DF10BD82D6F
:100BB800F20BD82DDF2D8312031386010B30F200C0
:100BC8002630F1006630F000F00BE82DF10BE82D2F
:100BD800F20BE82DEF2DFF308312031386000B3044
:100BE800F2002630F1006630F000F00BF92DF10B21
:100BF800F92DF20BF92D002E7F3083120313860096
:100C08000B30F2002630F1006630F000F00B0A2EAF
:100C1800F10B0A2EF20B0A2E112EBF30831203138A
:100C280086000B30F2002630F1006630F000F00B41
:100C38001B2EF10B1B2EF20B1B2E222EDF308312E4
:100C4800031386000B30F2002630F1006630F00006
:100C5800F00B2C2EF10B2C2EF20B2C2E332EEF300A
:100C68008312031386000B30F2002630F100663041
:100C7800F000F00B3D2EF10B3D2EF20B3D2E442ED5
:100C8800F7308312031386000B30F2002630F10090
:100C98006630F000F00B4E2EF10B4E2EF20B4E2E5E
:100CA800552EFB308312031386000B30F2002630DA
:100CB800F1006630F000F00B5F2EF10B5F2EF20BA7
:100CC8005F2E662EFD308312031386000B30F20070
:100CD8002630F1006630F000F00B702EF10B702E0C
:100CE800F20B702E772EFE308312031386000B3022
:100CF800F2002630F1006630F000F00B812EF10B87
:100D0800812EF20B812E882EFF308312031386006A
:100D18000B30F2002630F1006630F000F00B922E16
:100D2800F10B922EF20B922E992E7F308312031321
:100D380086000B30F2002630F1006630F000F00B30
:100D4800A32EF10BA32EF20BA32EAA2EBF308312D3
:100D5800031386000B30F2002630F1006630F000F5
:100D6800F00BB42EF10BB42EF20BB42EBB2EDF30E9
:100D78008312031386000B30F2002630F100663030
:100D8800F000F00BC52EF10BC52EF20BC52ECC2EA4
:100D9800EF308312031386000B30F2002630F10087
:100DA8006630F000F00BD62EF10BD62EF20BD62EB5
:100DB800DD2EF7308312031386000B30F200263045
:100DC800F1006630F000F00BE72EF10BE72EF20B86
:100DD800E72EEE2EFB308312031386000B30F20051
:100DE8002630F1006630F000F00BF82EF10BF82EEB
:100DF800F20BF82EFF2EFD308312031386000B3002
:100E0800F2002630F1006630F000F00B092FF10BEC
:100E1800092FF20B092F102FFE30831203138600BF
:100E28000B30F2002630F1006630F000F00B1A2F7C
:100E3800F10B1A2FF20B1A2F212FFF3083120313F5
:100E480086000B30F2002630F1006630F000F00B1F
:100E58002B2FF10B2B2FF20B2B2F322F7E308312DF
:100E6800031386000B30F2002630F1006630F000E4
:100E7800F00B3C2FF10B3C2FF20B3C2F432F3C3057
:100E88008312031386000B30F2002630F10066301F
:100E9800F000F00B4D2FF10B4D2FF20B4D2F542F6F
:100EA80018308312031386000B30F2002630F1004D
:100EB8006630F000F00B5E2FF10B5E2FF20B5E2F09
:100EC800652F8312031386010B30F2002630F100E0
:100ED8006630F000F00B6E2FF10B6E2FF20B6E2FB9
:100EE800752F18308312031386000B30F20026305A
:100EF800F1006630F000F00B7F2FF10B7F2FF20B23
:100F08007F2F862F3C308312031386000B30F200AC
:100F18002630F1006630F000F00B902FF10B902F87
:100F2800F20B902F972F7E308312031386000B301D
:100F3800F2002630F1006630F000F00BA12FF10B23
:100F4800A12FF20BA12FA82FFF30831203138600C5
:100F58000B30F2002630F1006630F000F00BB22FB3
:100F6800F10BB22FF20BB22FB92FFF3083120313FC
:100F780086000B30F2002630F1006630F000F00BEE
:100F8800C32FF10BC32FF20BC32FCA2F7E3083124E
:100F9800031386000B30F2002630F1006630F000B3
:100FA800F00BD42FF10BD42FF20BD42FDB2F3C30C6
:100FB8008312031386000B30F2002630F1006630EE
:100FC800F000F00BE52FF10BE52FF20BE52FEC2FDE
:100FD80018308312031386000B30F2002630F1001C
:100FE8006630F000F00BF62FF10BF62FF20BF62F10
:080FF800FD2F0A128A15AC2E30
:101D58008312031386010B30F2002630F10066303F
:101D6800F000F00BB52EF10BB52EF20BB52EBC2EF4
:101D780018308312031386000B30F2002630F1006E
:101D88006630F000F00BC62EF10BC62EF20BC62EF5
:101D9800CD2E3C308312031386000B30F200263020
:101DA800F1006630F000F00BD72EF10BD72EF20BB6
:101DB800D72EDE2E7E308312031386000B30F200FE
:101DC8002630F1006630F000F00BE82EF10BE82E1B
:101DD800F20BE82EEF2EFF308312031386000B3030
:101DE800F2002630F1006630F000F00BF92EF10B0E
:101DF800F92EF20BF92E002F7E3083120313860082
:101E08000B30F2002630F1006630F000F00B0A2F9C
:101E1800F10B0A2FF20B0A2F112FBD308312031377
:101E280086000B30F2002630F1006630F000F00B2F
:101E38001B2FF10B1B2FF20B1B2F222FDB308312D2
:101E4800031386000B30F2002630F1006630F000F4
:101E5800F00B2C2FF10B2C2FF20B2C2F332FE730FC
:101E68008312031386000B30F2002630F10066302F
:101E7800F000F00B3D2FF10B3D2FF20B3D2F442FBF
:101E8800FF308312031386000B30F2002630F10076
:101E98006630F000F00B4E2FF10B4E2FF20B4E2F49
:101EA800552FAA308312031386000B30F200263018
:101EB800F1006630F000F00B5F2FF10B5F2FF20B93
:101EC8005F2F662F55308312031386000B30F20004
:101ED8002630F1006630F000F00B702FF10B702FF8
:101EE800F20B702F772FAA308312031386000B3062
:101EF800F2002630F1006630F000F00B812FF10B74
:101F0800812FF20B812F882F5530831203138600FF
:101F18000B30F2002630F1006630F000F00B922F03
:101F2800F10B922FF20B922F992FAA3083120313E1
:101F380086000B30F2002630F1006630F000F00B1E
:101F4800A32FF10BA32FF20BA32FAA2F5530831227
:101F5800031386000B30F2002630F1006630F000E3
:101F6800F00BB42FF10BB42FF20BB42FBB2FFF30B3
:101F78008312031386000B30F2002630F10066301E
:101F8800F000F00BC52FF10BC52FF20BC52FCC2F8E
:101F98008312031386010B30F2002630F1006630FD
:101FA800F000F00BD52FF10BD52FF20BD52FDC2F2E
:101FB800FF308312031386000B30F2002630F10045
:101FC8006630F000F00BE62FF10BE62FF20BE62F50
:101FD800ED2F8312031386010B30F2002630F10037
:101FE8006630F000F00BF62FF10BF62FF20BF62F00
:081FF800FD2F0A128A11FB28DB
:02400E00BAFDF9
:00000001FF
